S0100000696E7465727570742E7372656399
S11300000030002021010000C1000000C3000000F6
S1130010C1000000C1000000C1000000C1000000D8
S1130020C1000000C1000000C1000000C1000000C8
S1130030C1000000C1000000C1000000C1000000B8
S1130040C1000000C1000000C1000000C1000000A8
S1130050C1000000C1000000C1000000C100000098
S1130060C1000000C1000000C1000000C100000088
S1130070C1000000C1000000C1000000C100000078
S1130080C1000000C1000000C1000000C100000068
S1130090C1000000C1000000C1000000C100000058
S11300A0C1000000C1000000C1000000C100000048
S11300B0C1000000C100000095040000C100000060
S11300C0FEE7FEE78021104A104B8901D05830B575
S11300D00143D1500E490F4C4868204048608020AD
S11300E04C6840002043486002200B4C65698543FE
S11300F065614D6805434D6021690142FCD0D158CA
S113010006480140D15030BD007004403810000052
S113011000D00440FFF8FFFF00F10F40FFDFFFFFB6
S1130120FFF7D0FF882201212E4B520199502E480F
S11301302E4A906080222E4892001C5822431A5066
S11301402C482D4A98501A682C48024080201A6086
S11301502B4A40029C58204398509858294C0440FC
S11301608020400420439850274B284C986C204012
S11301709864DA6C00202240DA6424221F24244B81
S11301801870244B5A7074321A70DA782240DA707C
S113019010221971587199791142FCD10C219A7964
S11301A00A40082AFBD138325A7199791142FCD09D
S11301B018220C211A709A790A400C2AFBD10022C9
S11301C015481649164C13188B4205D30021154ABD
S11301D0934205D900F01CF9A55804321D60F2E7DA
S11301E002C3F5E7007004400000000000ED00E0E9
S11301F0381000000000011044100000FFFFF3FF5E
S113020004100000FFFFFFFC00900440FFF8FFFE15
S1130210005006400040064000F0FF1F00F0FF1FA2
S11302204008000004F0FF1F000000000000000070
S113023000000000000000000000000000000000BA
S113024000000000000000000000000000000000AA
S1130250000000000000000000000000000000009A
S1130260000000000000000000000000000000008A
S1130270000000000000000000000000000000007A
S1130280000000000000000000000000000000006A
S1130290000000000000000000000000000000005A
S11302A0000000000000000000000000000000004A
S11302B0000000000000000000000000000000003A
S11302C0000000000000000000000000000000002A
S11302D0000000000000000000000000000000001A
S11302E0000000000000000000000000000000000A
S11302F000000000000000000000000000000000FA
S113030000000000000000000000000000000000E9
S113031000000000000000000000000000000000D9
S113032000000000000000000000000000000000C9
S113033000000000000000000000000000000000B9
S113034000000000000000000000000000000000A9
S11303500000000000000000000000000000000099
S11303600000000000000000000000000000000089
S11303700000000000000000000000000000000079
S11303800000000000000000000000000000000069
S11303900000000000000000000000000000000059
S11303A00000000000000000000000000000000049
S11303B00000000000000000000000000000000039
S11303C00000000000000000000000000000000029
S11303D00000000000000000000000000000000019
S11303E00000000000000000000000000000000009
S11303F000000000000000000000000000000000F9
S1130400FFFFFFFFFFFFFFFFFFFFFFFF7EF7FFFF81
S113041010B572B600F00EF800F064F862B602206F
S113042000F0EEF800F054F8072100F003FAC8B227
S1130430F6E7000080230F490F4A9B0088580343C6
S1130440C7208B500D4A0E4B0E491A650E4A800088
S113045053690B4053610D4B0D491A581140C0228A
S113046012040A431A50C02180224900D2055A506E
S11304701A607047007004403810000003010A003D
S113048000900440FFFFEFFF00F00F4000E100E0A8
S1130490FFFF00FF10B5052000F0B2F8044A13680E
S11304A0013313608022034B52031A6010BDC0460F
S11304B000F0FF1FA0900440EFF3108272B60021F9
S11304C0024B1868196082F31088704700F0FF1F10
S11304D0EFF3108372B6024A106883F310887047F2
S11304E000F0FF1FA0231449144A5B0188580343FA
S11304F08B50134B13489A6C02409A648022996C77
S1130500520011439964D96C0140D964D96C1143E8
S1130510D9640D4B59680140596059680A435A60BF
S1130520C0230A4A1B0351690B4353610223084A3F
S113053051690B4353617047007004403810000048
S113054000A00440FFF8FFFF00C0044040F00F404B
S1130550C0F00F408023034A1B0391680B43936050
S11305607047C04640F00F408023034A1B03516884
S11305700B4353607047C04640F00F408023034A4A
S11305801B03D1680B43D3607047C04640F00F4053
S11305908023034ADB0291680B4393607047C04693
S11305A040F00F408023034ADB0251680B43536041
S11305B07047C04640F00F408023034ADB02D168F5
S11305C00B43D3607047C04640F00F400223024AF9
S11305D091680B4393607047C0F00F400223024AB6
S11305E051680B4353607047C0F00F408023034AA7
S11305F0DB02D1680B43D3607047C046C0F00F40A4
S113060010B5002806D1FFF7E9FFFFF7ADFFFFF7AC
S1130610C9FF10BD012802D1FFF7D8FFF5E7022872
S113062004D1FFF7DBFFFFF795FFF0E7032802D1C2
S1130630FFF7CCFFF7E7042806D1FFF7CFFFFFF75A
S113064093FFFFF7A5FFE4E7052802D1FFF7BEFFFC
S1130650F5E7062804D1FFF7C1FFFFF77BFFF0E7BA
S1130660FFF7B4FFF9E7000003460B437FD40022F1
S113067043088B4274D303098B425FD3030A8B4232
S113068044D3030B8B4228D3030C8B420DD3FF229C
S1130690090212BA030C8B4202D31212090265D06A
S11306A0030B8B4219D300E0090AC30B8B4201D31D
S11306B0CB03C01A5241830B8B4201D38B03C01A64
S11306C05241430B8B4201D34B03C01A5241030BDB
S11306D08B4201D30B03C01A5241C30A8B4201D38C
S11306E0CB02C01A5241830A8B4201D38B02C01A37
S11306F05241430A8B4201D34B02C01A5241030AAE
S11307008B4201D30B02C01A5241CDD2C3098B4292
S113071001D3CB01C01A524183098B4201D38B010F
S1130720C01A524143098B4201D34B01C01A5241B2
S113073003098B4201D30B01C01A5241C3088B42F7
S113074001D3CB00C01A524183088B4201D38B00E2
S1130750C01A524143088B4201D34B00C01A524184
S1130760411A00D201465241104670475DE0CA0F5B
S113077000D04942031000D34042534000229C461B
S113078003098B422DD3030A8B4212D3FC22890125
S113079012BA030A8B420CD3890192118B4208D3FB
S11307A0890192118B4204D389013AD0921100E05D
S11307B08909C3098B4201D3CB01C01A5241830971
S11307C08B4201D38B01C01A524143098B4201D39E
S11307D04B01C01A524103098B4201D30B01C01AC9
S11307E05241C3088B4201D3CB00C01A5241830843
S11307F08B4201D38B00C01A5241D9D243088B4299
S113080001D34B00C01A5241411A00D2014663463B
S113081052415B10104601D34042002B00D549429F
S1130820704763465B1000D3404201B5002000F0DE
S113083005F802BD0029F8D016E770477047C04696
S9030121DA
