S013000074696D696E675F64656D6F2E7372656385
S113000000300020C9000000C1000000C30000004F
S1130010C1000000C1000000C1000000C1000000D8
S1130020C1000000C1000000C1000000C1000000C8
S1130030C1000000C1000000C1000000C1000000B8
S1130040C1000000C1000000C1000000C1000000A8
S1130050C1000000C1000000C1000000C100000098
S1130060C1000000C1000000C1000000C100000088
S1130070C1000000C1000000C1000000C100000078
S1130080C1000000C1000000C1000000C100000068
S1130090C1000000C1000000C1000000C100000058
S11300A0C1000000C1000000C1000000C100000048
S11300B0C1000000C1000000C1000000C100000038
S11300C0FEE7FEE7C046C046882200212E4B5201BF
S11300D099502E482E4A906080222E4892001C5837
S11300E022431A502C482D4A98501A682C48024032
S11300F080201A602B4A40029C58204398509858FC
S1130100294C04408020400420439850274B284C1D
S1130110986C20409864DA6C1F202240DA64242210
S1130120244B1970244B5A7074321A70DA780240D6
S1130130DA7001221A7159710F3299791142FCD186
S11301400C219A790A40082AFBD138325A719979DC
S11301501142FCD018220C211A709A790A400C2AF8
S1130160FBD1002215481649164C13188B4205D3AF
S11301700021154A934205D900F058F9A5580432D4
S11301801D60F2E702C3F5E70070044000000000C0
S113019000ED00E0381000000000011044100000E1
S11301A0FFFFF3FF04100000FFFFFFFC009004407A
S11301B0FFF8FFFE005006400040064000F0FF1F1D
S11301C000F0FF1FD205000000F0FF1F8021104A3D
S11301D0104B8901D05830B50143D1500E490F4C12
S11301E048682040486080204C68400020434860B4
S11301F002200B4C6569854365614D6805434D607C
S113020021690142FCD0D15806480140D15030BD8B
S1130210007004403810000000D00440FFF8FFFFD5
S113022000F10F40FFDFFFFF0000000000000000AE
S113023000000000000000000000000000000000BA
S113024000000000000000000000000000000000AA
S1130250000000000000000000000000000000009A
S1130260000000000000000000000000000000008A
S1130270000000000000000000000000000000007A
S1130280000000000000000000000000000000006A
S1130290000000000000000000000000000000005A
S11302A0000000000000000000000000000000004A
S11302B0000000000000000000000000000000003A
S11302C0000000000000000000000000000000002A
S11302D0000000000000000000000000000000001A
S11302E0000000000000000000000000000000000A
S11302F000000000000000000000000000000000FA
S113030000000000000000000000000000000000E9
S113031000000000000000000000000000000000D9
S113032000000000000000000000000000000000C9
S113033000000000000000000000000000000000B9
S113034000000000000000000000000000000000A9
S11303500000000000000000000000000000000099
S11303600000000000000000000000000000000089
S11303700000000000000000000000000000000079
S11303800000000000000000000000000000000069
S11303900000000000000000000000000000000059
S11303A00000000000000000000000000000000049
S11303B00000000000000000000000000000000039
S11303C00000000000000000000000000000000029
S11303D00000000000000000000000000000000019
S11303E00000000000000000000000000000000009
S11303F000000000000000000000000000000000F9
S1130400FFFFFFFFFFFFFFFFFFFFFFFF7EF7FFFF81
S1130410FA2282B09200013801D202B070470192F0
S1130420019B591E0191002BFAD1F4E710B5FA246F
S113043000F00EF86401042000F098F82000FFF7A3
S1130440E7FF002000F092F82000FFF7E1FFF2E759
S1130450A0231449144A5B01885803438B50134B5F
S113046013489A6C02409A648022996C520011439A
S11304709964D96C0140D964D96C1143D9640D4B8A
S113048059680140596059680A435A60C0230A4AAE
S11304901B0351690B4353610223084A51690B43FF
S11304A053617047007004403810000000A00440FD
S11304B0FFF8FFFF00C0044040F00F40C0F00F40C1
S11304C08023034A1B0391680B4393607047C04623
S11304D040F00F408023034A1B0351680B435360D1
S11304E07047C04640F00F408023034A1B03D16885
S11304F00B43D3607047C04640F00F408023034A4B
S1130500DB0291680B4393607047C04640F00F4094
S11305108023034ADB0251680B4353607047C04693
S113052040F00F408023034ADB02D1680B43D360C1
S11305307047C04640F00F400223024A91680B43C3
S113054093607047C0F00F400223024A51680B4386
S113055053607047C0F00F408023034ADB02D16828
S11305600B43D3607047C046C0F00F4010B500285D
S113057006D1FFF7E9FFFFF7ADFFFFF7C9FF10BD95
S1130580012802D1FFF7D8FFF5E7022804D1FFF7CD
S1130590DBFFFFF795FFF0E7032802D1FFF7CCFF5D
S11305A0F7E7042806D1FFF7CFFFFFF793FFFFF724
S11305B0A5FFE4E7052802D1FFF7BEFFF5E706280B
S11305C004D1FFF7C1FFFFF77BFFF0E7FFF7B4FFAC
S10505D0F9E745
S90300C933
