S013000074696D696E675F64656D6F2E7372656385
S113000000300020C9000000C1000000C30000004F
S1130010C1000000C1000000C1000000C1000000D8
S1130020C1000000C1000000C1000000C1000000C8
S1130030C1000000C1000000C1000000C1000000B8
S1130040C1000000C1000000C1000000C1000000A8
S1130050C1000000C1000000C1000000C100000098
S1130060C1000000C1000000C1000000C100000088
S1130070C1000000C1000000C1000000C100000078
S1130080C1000000C1000000C1000000C100000068
S1130090C1000000C1000000C1000000C100000058
S11300A0C1000000C1000000C1000000C100000048
S11300B0C1000000C1000000C1000000C100000038
S11300C0FEE7FEE7C046C0460A4A0B4B0B489A605F
S11300D000220B490B4C13188B4205D300210A4A0A
S11300E0934205D900F0A2F9A55804321D60F2E745
S11300F002C3F5E70000000000ED00E000F0FF1F80
S113010000F0FF1FCE05000000F0FF1F00000000FC
S113011000000000000000000000000000000000DB
S113012000000000000000000000000000000000CB
S113013000000000000000000000000000000000BB
S113014000000000000000000000000000000000AB
S1130400FFFFFFFFFFFFFFFFFFFFFFFF7EF7FFFF81
S1130410FA2282B09200013801D202B070470192F0
S1130420019B591E0191002BFAD1F4E770B5FA250E
S113043000F00CF86D010024E0B200F095F80134EE
S11304402800FFF7E5FF082CF6D1F4E7A0231449B0
S1130450144A5B01885803438B50134B13489A6C1E
S113046002409A648022996C520011439964D96CB9
S11304700140D964D96C1143D9640D4B59680140CA
S1130480596059680A435A60C0230A4A1B035169D8
S11304900B4353610223084A51690B43536170476C
S11304A0007004403810000000A00440FFF8FFFF73
S11304B000C0044040F00F40C0F00F408023034AC6
S11304C01B0391680B4393607047C04640F00F4094
S11304D08023034A1B0351680B4353607047C04693
S11304E040F00F408023034A1B03D1680B43D360C1
S11304F07047C04640F00F408023034ADB029168F6
S11305000B4393607047C04640F00F408023034A7A
S1130510DB0251680B4353607047C04640F00F4004
S11305208023034ADB02D1680B43D3607047C04683
S113053040F00F400223024A91680B4393607047D6
S1130540C0F00F400223024A51680B4353607047C6
S1130550C0F00F408023034ADB02D1680B43D36011
S11305607047C046C0F00F4010B5002806D1FFF711
S1130570E9FFFFF7ADFFFFF7C9FF10BD012802D166
S1130580FFF7D8FFF5E7022804D1FFF7DBFFFFF7F9
S113059095FFF0E7032802D1FFF7CCFFF7E7042823
S11305A006D1FFF7CFFFFFF793FFFFF7A5FFE4E7BF
S11305B0052802D1FFF7BEFFF5E7062804D1FFF7AF
S11105C0C1FFFFF77BFFF0E7FFF7B4FFF9E799
S90300C933
