S013000061737369676E6D656E74312E73726563A7
S113000000300020C9000000C1000000C30000004F
S1130010C1000000C1000000C1000000C1000000D8
S1130020C1000000C1000000C1000000C1000000C8
S1130030C1000000C1000000C1000000C1000000B8
S1130040C1000000C1000000C1000000C1000000A8
S1130050C1000000C1000000C1000000C100000098
S1130060C1000000C1000000C1000000C100000088
S1130070C1000000C1000000C1000000C100000078
S1130080C1000000C1000000C1000000C100000068
S1130090C1000000C1000000C1000000C100000058
S11300A0C1000000C1000000C1000000C100000048
S11300B0C1000000C1000000C1000000C100000038
S11300C0FEE7FEE7C046C04688220121324B5201BA
S11300D099503248324A90608022324892001C582B
S11300E022431A503048314A98501A683048024026
S11300F080201A602F4A40029C58204398509858F8
S11301002D4C044080204004204398502B4B2C4C11
S1130110986C20409864DA6C00202240DA6424222F
S11301201F24284B1870284B5A7074321A70DA78CE
S11301302240DA7010221971587199791142FCD158
S11301400C219A790A40082AFBD138325A719979DC
S11301501142FCD018220C211A709A790A400C2AF8
S1130160FBD1002219491A4B1A4CCB1A9B1093420B
S113017008D100201849194BCB1A9B10013B06D219
S113018000F046F99000255801320D50EFE79A002F
S11301908A1A043A1060F1E700700440000000007D
S11301A000ED00E0381000000000011044100000D1
S11301B0FFFFF3FF04100000FFFFFFFC009004406A
S11301C0FFF8FFFE005006400040064000F0FF1F0D
S11301D000F0FF1F5806000000F0FF1F00F0FF1F93
S11301E0000000000000000000000000000000000B
S11301F000000000000000000000000000000000FB
S113020000000000000000000000000000000000EA
S113021000000000000000000000000000000000DA
S1130400FFFFFFFFFFFFFFFFFFFFFFFF7EF7FFFF81
S113041010B500F00DF800F0D7F8002400F008F94A
S1130420E0B2013400F092F8082CF7D1F5E70000AF
S1130430A0231449144A5B01885803438B50134B7F
S113044013489A6C02409A648022996C52001143BA
S11304509964D96C0140D964D96C1143D9640D4BAA
S113046059680140596059680A435A60C0230A4ACE
S11304701B0351690B4353610223084A51690B431F
S113048053617047007004403810000000A004401D
S1130490FFF8FFFF00C0044040F00F40C0F00F40E1
S11304A08023034A1B0391680B4393607047C04643
S11304B040F00F408023034A1B0351680B435360F1
S11304C07047C04640F00F408023034A1B03D168A5
S11304D00B43D3607047C04640F00F408023034A6B
S11304E0DB0291680B4393607047C04640F00F40B5
S11304F08023034ADB0251680B4353607047C046B4
S113050040F00F408023034ADB02D1680B43D360E1
S11305107047C04640F00F400223024A91680B43E3
S113052093607047C0F00F400223024A51680B43A6
S113053053607047C0F00F408023034ADB02D16848
S11305400B43D3607047C046C0F00F4010B5072876
S113055033D800F077F8040B12191E252A2FFFF761
S1130560C7FFFFF7A7FFFFF7DFFF10BDFFF7C0FFCF
S1130570FFF7A0FFFFF7D0FFF7E7FFF7B9FFFFF79B
S1130580D3FFFFF78DFFF0E7FFF7B2FFFFF788FF18
S1130590F0E7FFF7C9FFFFF78DFFFFF79FFFE4E7E1
S11305A0FFF788FFFFF79AFFE4E7FFF7BDFFFFF7C8
S11305B095FFE6E7FFF7B0FFF9E7FFF7B5FFFFF7B1
S11305C079FFFFF795FFD0E780230B490B4A9B0087
S11305D0885803438B500A4B0A491A6D0A401A651E
S11305E08022196D52000A431A65074A0749536964
S11305F00B4053617047C04600700440381000003F
S113060000900440FFF8FFFF00F00F40FFFFEFFFF2
S11306100120024B1B691B0D9843704700F00F40EB
S113062010B5FFF7F5FF030001205840C0B210BD1C
S113063010B5FFF7EDFF0028FBD0FFF7F1FF00280E
S1130640FBD010BD02B4714649084900095C490059
S10B06508E4402BC7047C04651
S90300C933
